:020000040800F2
:100000001804002045010008B9020008B1020008E8
:10001000B50200088D010008E50900080000000095
:10002000000000000000000000000000A50600081D
:100030009101000800000000AD05000891070008CC
:100040005F0100085F0100085F0100085F01000810
:100050005F0100085F0100085F0100085F01000800
:100060005F0100085F0100085F0100085F010008F0
:100070005F0100085F0100085F0100085F010008E0
:100080005F0100085F0100085F0100085F010008D0
:100090005F0100085F0100085F0100085F010008C0
:1000A0005F0100085F0100085F0100085F010008B0
:1000B0005F0100085F0100085F0100085F010008A0
:1000C0005F0100085F0100085F0100085F01000890
:1000D0005F0100085F0100085F0100085F01000880
:1000E0005F0100085F0100085F0100085F01000870
:1000F0005F0100085F0100085F0100085F01000860
:100100005F0100085F0100085F0100085F0100084F
:100110005F0100085F0100085F0100085F0100083F
:100120005F0100085F0100085F0100085F0100082F
:10013000DFF80CD000F018F800480047410A00082A
:10014000180400200648804706480047FEE7FEE7FF
:10015000FEE7FEE7FEE7FEE7FEE7FEE7FEE7FEE777
:100160009507000831010008064C074D06E0E068DD
:1001700040F0010394E8070098471034AC42F6D3EE
:10018000FFF7DAFF482500086825000800BFFEE7F2
:1001900070472DE9F041024600250026002000238B
:1001A0000024002791F803C00CF00F0591F803C05C
:1001B0000CF0100CBCF1000F03D091F802C04CEA17
:1001C000050591F800C0BCF1000F31D01468002083
:1001D0002BE04FF0010C0CFA00F3B1F800C00CEA70
:1001E00003069E4220D183004FF00F0C0CFA03F758
:1001F000BC4305FA03FC4CEA040491F803C0BCF1CB
:10020000280F06D14FF0010C0CFA00FCC2F814C004
:100210000AE091F803C0BCF1480F05D14FF0010C82
:100220000CFA00FCC2F810C0401C0828D1D314609E
:10023000B1F800C0BCF1FF0F34DD546800202EE09F
:1002400000F1080C4FF0010808FA0CF3B1F800C0F7
:100250000CEA03069E4221D183004FF00F0C0CFAEA
:1002600003F7BC4305FA03FC4CEA040491F803C00D
:10027000BCF1280F05D100F1080C08FA0CF8C2F8FF
:10028000148091F803C0BCF1480F07D100F1080CAD
:100290004FF0010808FA0CF8C2F81080401C08283A
:1002A000CED35460BDE8F081416170470161704771
:1002B00000BFFEE700BFFEE77047000070B50021F9
:1002C00000230F22C47804B3154C246804F4E064BE
:1002D000C4F5E064210AC1F10403CA40447804FA79
:1002E00003F184781440214309010E4C0678A1558E
:1002F000047804F01F050124AC4005786D11AD00B1
:1003000005F1E025C5F8004109E0047804F01F0577
:100310000124AC40044D0678761145F8264070BDA6
:100320000CED00E000E400E080E100E00249014360
:10033000024A1160704700000000FA050CED00E071
:100340002DE9F04180460E46174600247D013146D6
:10035000404600F0C3F800BF06E00D49485D00F0DC
:10036000FBF86D1C601CC4B2102CF6DB701CC1B213
:10037000404600F0B3F8002406E00549485D00F06F
:10038000EBF86D1C601CC4B2102CF6DBBDE8F081EC
:100390003C0B000810B5002000F001F810BD70B54E
:1003A0000646002415E004F1B001C8B200F0AAF836
:1003B000012000F0A7F8102000F0A4F8002504E0C8
:1003C000304600F0C9F8681CC5B2802DF8DB601C0F
:1003D000C4B2082CE7DB70BD08B50121082000F08D
:1003E000E7F84FF47040ADF8000010208DF80300DE
:1003F00003208DF8020069463748FFF7CAFE4FF424
:1004000070413548FFF752FF4FF4FA7000F0FBFAE5
:100410004FF400513048FFF747FFAE2000F072F86C
:10042000AE2000F06FF8002000F06CF8102000F013
:1004300069F8402000F066F8812000F063F8CF20D2
:1004400000F060F8A12000F05DF8C82000F05AF834
:10045000A62000F057F8A82000F054F83F2000F044
:1004600051F8D32000F04EF8002000F04BF8D520D2
:1004700000F048F8802000F045F8D92000F042F85C
:10048000F12000F03FF8DA2000F03CF8122000F0F4
:1004900039F8DB2000F036F8402000F033F8202057
:1004A00000F030F8022000F02DF88D2000F02AF83E
:1004B000142000F027F8A42000F024F8A62000F073
:1004C00021F8AF2000F01EF80020FFF768FF0021A0
:1004D000084600F003F808BD000C014070B5044662
:1004E0000D4605F1B001C8B200F00CF8102141EA48
:1004F000141000F007F804F00F0141F0010000F0C3
:1005000001F870BD70B505464FF480511148FFF7F2
:10051000CBFE00241BE005FA04F000F0800028B1B7
:100520004FF480410B48FFF7C1FE04E04FF48041D7
:100530000848FFF7B9FE4FF400410648FFF7B4FE44
:100540004FF400410348FFF7B1FE601CC4B2082C11
:10055000E1DB70BD000C014070B505464FF48051E1
:100560001148FFF7A3FE00241BE005FA04F000F099
:10057000800028B14FF480410B48FFF797FE04E05C
:100580004FF480410848FFF78FFE4FF400410648C2
:10059000FFF78AFE4FF400410348FFF787FE601C17
:1005A000C4B2082CE1DB70BD000C014070470000B4
:1005B00029B1064A92690243044B9A6104E0034A56
:1005C00092698243014B9A6170470000001002401B
:1005D00030B500210022002400232D4D6D6805F068
:1005E0000C0121B1042905D0082923D105E0294DAA
:1005F000056022E0274D05601FE0254D6D6805F47C
:100600007012234D6D6805F48034022505EB92428B
:100610001CB9214D554305600BE01D4D6D6805F477
:1006200000351DB11C4D5543056002E0194D554381
:10063000056002E0174D056000BF00BF144D6D68F6
:1006400005F0F0010909154D6B5C0568DD4045605A
:100650000F4D6D6805F4E061090A104D6B5C45684B
:10066000DD4085600A4D6D6805F46051C90A0B4D87
:100670006B5C4568DD40C560054D6D6805F4404123
:10068000890B074D6B5CC568B5FBF3F5056130BDA3
:100690000010024000127A0000093D000000002016
:1006A00010000020704710B500F002F810BD0000E7
:1006B0000CB50020019000903348006840F4803071
:1006C0003149086000BF3048006800F400300090F5
:1006D0000198401C0190009818B90198B0F5A06FDE
:1006E000F1D12948006800F4003010B101200090D9
:1006F00001E0002000900098012843D123480068C1
:1007000040F01000214908600846006820F003000E
:1007100008600846006840F0020008601A48406817
:10072000194948600846406848600846406840F4F7
:10073000806048600846406820F47C1048600846A5
:10074000406840F4E81048600846006840F0807057
:10075000086000BF0C48006800F000700028F9D065
:100760000948406820F0030007494860084640688F
:1007700040F00200486000BF0348406800F00C00F1
:100780000828F9D10CBD00000010024000200240F2
:100790007047000010B51348006840F0010011498F
:1007A000086008464068104908400E4948600846FD
:1007B00000680E4908400B4908600846006820F4AC
:1007C000802008600846406820F4FE0048604FF42E
:1007D0001F008860FFF767FF4FF000600449086062
:1007E00010BD0000001002400000FFF8FFFFF6FE01
:1007F00008ED00E000B587B0012144F20400FFF7E6
:10080000D7FE4FF40070ADF8180018208DF81B00CB
:1008100003208DF81A0006A91F48FFF7BAFC4FF411
:100820008060ADF8180004208DF81B0006A91A4856
:10083000FFF7AFFC4FF4165002900020ADF80C000B
:10084000ADF80E00ADF81000ADF814000C20ADF8B6
:10085000120002A9114800F055F801210F4800F0DC
:100860001FF8012240F225510C4800F025F84FF402
:10087000E060FFF75BFD25208DF8040000208DF877
:10088000050002208DF8060001208DF8070001A860
:10089000FFF714FD07B000BD00080140003801401B
:1008A00021B1828942F40052828104E082894DF6AE
:1008B000FF731A4082817047F0B50346002400267A
:1008C0000025002040F66A17B94200D100BF184643
:1008D000C1F3421401F01F06012707FA06F5012CA7
:1008E00001D10C3004E0022C01D1103000E01430B2
:1008F0001AB107682F43076002E00768AF4307603B
:10090000F0BD00002DE9F04786B005460E460024F4
:10091000A24600BFA1460027B08900B100BF2F4604
:100920002C8A4CF6FF700440F08804432C82AC897A
:100930004EF6F3100440B0883189084371890843AA
:100940000443AC81AC8A4FF6FF400440B0890443B5
:10095000AC8201A8FFF73CFE1F48874202D1DDF8B8
:1009600010A001E0DDF80CA0A88900F4004040B11F
:100970000AEBCA0000EB0A1031684900B0FBF1F83D
:1009800007E00AEBCA0000EB0A1031688900B0FBEF
:10099000F1F86420B8FBF0F004012009642101FBA8
:1009A0001089A88900F4004040B1322000EBC90052
:1009B000B0FBF1F000F00700044308E0322000EB48
:1009C00009106421B0FBF1F000F00F0004432C810A
:1009D00006B0BDE8F087000000380140C1F308020E
:1009E0008280704700BFFEE702E008C8121F08C1FE
:1009F000002AFAD170477047002001E001C1121FA0
:100A0000002AFBD17047014642F228324A434FF098
:100A1000E0235A6100229A6101221A6100BF4FF05F
:100A2000E022106900F001021AB100F48032002ABD
:100A3000F5D000224FF0E0231A619A617047000060
:100A4000FFF7CAFCFFF7A6FCFFF7D4FE71E0002415
:100A500035E021463748FFF7C1FFE11704EBD161CC
:100A60004911A4EB411109B9FFF794FC2146E217A3
:100A700004EBD2625211A4EB4210C21700EB527287
:100A8000D210A0EBC2024FF6FF7303EA0216204613
:100A9000E21704EBD2625211A4EB4211CA1701EB28
:100AA0005272D21003EA4207E2B2F9B2F0B2FFF793
:100AB00047FC4FF47A70FFF7A6FF601C84B2692CE4
:100AC000C7DBFFF767FC2046E11704EBD161491152
:100AD0004FF6FF7202EA411524E02946EA1705EBBA
:100AE000D2625211A5EB4210C21700EB5272D21023
:100AF000A0EBC2024FF6FF7303EA02162846EA177C
:100B000005EBD2625211A5EB4211CA1701EB5272EA
:100B1000D21003EA4207EAB2F9B2F0B2FFF710FCD2
:100B2000681C85B2A542D8DB0348FFF76CFFFFF7CE
:100B300031FC8CE700380140FFFF0F00000000008F
:100B400080402090482412090402000000000000A8
:100B500000010204091224481020000000001011B6
:100B6000161010F010101413100000008181414184
:100B700021110D030D1121414181810000FE22222E
:100B800022FE2010FC4B48F94A480800203F212152
:100B9000111F1000FF22223F222220000000020429
:100BA000091224489020408000000000000020101E
:100BB00048241209040201000000000000000000A7
:100BC0000000000000000000000000000000000025
:100BD00000000000000000000000000000001011F4
:100BE000161010F010101413100000008181414104
:100BF00021110D030D1121414181810000001011CF
:100C0000161010F0101014131000000081814141E3
:100C100021110D030D1121414181810000FE22228D
:100C200022FE2010FC4B48F94A480800203F2121B1
:100C3000111F1000FF22223F222220001010FF105F
:100C400010F00000FC061544847C000040300F00CA
:100C5000001F08141312125292423E0000000000BE
:100C600000000000000000000000000000005838F4
:100C7000000000000000000000000000080888C814
:100C8000380C0B0808E8080808080800020100FFF3
:100C900040414141417F4141414140001060028C4F
:100CA0000004E42424E40404FC04040004047E019D
:100CB00000000F04040F40807F000000001010109F
:100CC000101011161090503010000000004020103D
:100CD0001028444241404040404040001060028C97
:100CE00000C000FF4080FE4080FF000004047E0141
:100CF0000180601F00003F0000FF000000000000B6
:100D000000000000000000000000000000001824A7
:100D1000241800000000000000000000100C0494E3
:100D20006C04850684E48C9484140C000022732ADD
:100D3000262AB140300F40807F000000104C841400
:100D40000CE4050604E40C9444140C0008884524C3
:100D50001A070000003F4548504078001060028CA0
:100D60000040407F444400FC04FC000004047E0179
:100D7000104C807F041880631C638000202020209A
:100D8000A0702F202020E02020202000008080461E
:100D9000452828101826214080000000000000008F
:100DA00000000000000000000000000000005838B3
:100DB00000000000000000000000000010109292EF
:100DC00092FE929292929292FE1010004020100C8D
:100DD000FF44444444444444FC0000008082828236
:100DE000828282E2A2928A868280800000000000D5
:100DF0000040807F00000000000000001010F01F85
:100E000010F000808282E2928A86800040221508DB
:100E10001661000040807F0000000000404042CC8E
:100E20000008284888FF884A2C0800000040201F3E
:100E300020444249504F40414244400000000000DD
:100E40000000000000000000000000000000182466
:100E5000241800000000000000000000002020A86E
:100E60006C2A3928A82A6CA82020000002828190D0
:100E7000924A494524221008010202000004242459
:100E80002526E43C24262524240400004121118940
:100E9000858B8989F9898989898101008444241491
:100EA000840F0424242F242424240400080402FF93
:100EB0000000010141817F0101010100040444C4DB
:100EC0004F4444C424242FB4240404004044242464
:100ED000150C04FE040C15242444400000000000FE
:100EE0000000000000000000000000000000583872
:100EF00000000000000000000000000008080808D2
:100F000088780F08080808080808080020104846D4
:100F1000414141417F4141414140400008080808AA
:100F2000C8380F0808080808080808000804020163
:100F3000FF41414141414141FF0000001060028CEE
:100F4000004464544D46445464C4040004047E01C7
:100F500080403E0000FE00007E80E0000010101087
:100F6000101011161090503010000000004020109A
:100F700010284442414040404040400000000000F2
:100F80000000000000000000000000000000182425
:100F9000241800000000000000000000100C049461
:100FA0006C04850684E48C9484140C000022732A5B
:100FB000262AB140300F40807F000000104C84147E
:100FC0000CE4050604E40C9444140C000888452441
:100FD0001A070000003F4548504078001060028C1E
:100FE0000040407F444400FC04FC000004047E01F7
:100FF000104C807F041880631C6380002020202018
:10100000A0702F202020E02020202000008080469B
:10101000452828101826214080000000000000000C
:101020000000000000000000000000000000583830
:10103000000000000000000000000000100CE4842C
:1010400084F4051654D47454D4140C0080443C0425
:1010500004FF0002FA4B4A4A4BFA0200100CE484E7
:1010600084F405464444F44444540C0080443C0455
:1010700004FF22120A06FF0A122222000008284852
:10108000880808FF8808894A28080000001010080E
:101090000442817F000102040810100000101010AB
:1010A0001010111610905030100000000040201059
:1010B00010284442414040404040400000000000B1
:1010C00000000000000000000000000000001824E4
:1010D000241800000000000000000000000828485C
:1010E000880808FF8808894A2808000000101008AE
:1010F0000442817F0001020408101000001010104B
:1011000010101116109050301000000000402010F8
:10111000102844424140404040404000000202024A
:10112000028242F20E428202020200001008040211
:10113000010000FF00000001020C0000001088C444
:101140003300BEAAAAAAAAAABE800000020100FF1C
:1011500000020A120242827F020202000000000026
:1011600000000000000000000000000000005838EF
:10117000000000000000000000000000100CE484EB
:1011800084F4051654D47454D4140C0080443C04E4
:1011900004FF0002FA4B4A4A4BFA0200100CE484A6
:1011A00084F405464444F44444540C0080443C0414
:1011B00004FF22120A06FF0A122222000000FE92F9
:1011C000929292FE92929292FE00000040380100AC
:1011D0003C4040424C404070050830000000FE2278
:1011E0002222FE00FE828292A29E000080601F02E8
:1011F00042827F00FF402F102C438000000000003F
:1012000000000000000000000000000000001824A2
:101210002418000000000000000000001008FC037B
:10122000007C001008B744A49C0404004030030074
:101230003840424659404070000931004048484813
:101240007F48484840FF4040424C400000007E221A
:1012500022227E0080432C102C43F8001008FC034F
:10126000007C001008B744A49C0404004030030034
:1012700038404246594040700009310040484848D3
:101280007F48484840FF4040424C400000007E22DA
:1012900022227E0080432C102C43F8000000000026
:1012A00000000000000000000000000000005838AE
:1012B000000000000000000000000000C8B88FE837
:1012C0008880FE1292F29292F29E0000081808FFA7
:1012D00084641F04FC471C24578C8400C8B88FE822
:1012E0008888404848E85F4848484000081808FF98
:1012F000040400020B1222D20A0600000000FC24A3
:1013000024E42424222222A36200000040308F80A3
:101310004040231408142241408080008060F80778
:1013200000FE02F202FE00F800FF00000000FF00D5
:101330008047300F10270047807F0000000000002A
:101340000000000000000000000000000000182461
:10135000241800000000000000000000002020A869
:101360006C2A3928A82A6CA82020000002828190CB
:10137000924A494524221008010202000004242454
:101380002526E43C2426252424040000412111893B
:10139000858B8989F989898989810100844424148C
:1013A000840F0424242F242424240400080402FF8E
:1013B0000000010141817F0101010100040444C4D6
:1013C0004F4444C424242FB424040400404424245F
:1013D000150C04FE040C15242444400000000000F9
:1013E000000000000000000000000000000058386D
:1013F00000000000000000000000000008080808CD
:1014000088780F08080808080808080020104846CF
:10141000414141417F4141414140400008080808A5
:10142000C8380F080808080808080800080402015E
:10143000FF41414141414141FF00000000000414CF
:1014400064040CB402024233020000004041211146
:10145000090503FF03050911214140000010101088
:101460001010111610905030100000000040201095
:1014700010284442414040404040400000000000ED
:101480000000000000000000000000000000182420
:10149000241800000000000000000000100C04945C
:1014A0006C04850684E48C9484140C000022732A56
:1014B000262AB140300F40807F000000104C841479
:1014C0000CE4050604E40C9444140C00088845243C
:1014D0001A070000003F4548504078001060028C19
:1014E0000040407F444400FC04FC000004047E01F2
:1014F000104C807F041880631C6380002020202013
:10150000A0702F202020E020202020000080804696
:101510004528281018262140800000000000000007
:10152000000000000000000000000000000058382B
:10153000000000000000000000000000829292FE07
:1015400092928200829292FE92928200080808147F
:10155000141216995232140408080800829292FE5E
:1015600092928200829292FE92928200504C40208F
:101570003E5050494A4442710004180008080808C7
:10158000C878CF48484848C80808080010888443ED
:1015900040202116081422414080800000101010C5
:1015A0001010111610905030100000000040201054
:1015B00010284442414040404040400000000000AC
:1015C00000000000000000000000000000001824DF
:1015D000241800000000000000000000002020A8E7
:1015E0006C2A3928A82A6CA8202000000282819049
:1015F000924A4945242210080102020000042424D2
:101600002526E43C242625242404000041211189B8
:10161000858B8989F9898989898101008444241409
:10162000840F0424242F242424240400080402FF0B
:101630000000010141817F0101010100040444C453
:101640004F4444C424242FB42404040040442424DC
:10165000150C04FE040C1524244440000000000076
:1016600000000000000000000000000000005838EA
:10167000000000000000000000000000080808084A
:1016800088780F080808080808080800201048464D
:10169000414141417F414141414040000808080823
:1016A000C8380F08080808080808080008040201DC
:1016B000FF41414141414141FF00000004044444D5
:1016C0005F4444C424243F24240404000010121264
:1016D0001212127F898989898988F0000010101000
:1016E0001010111610905030100000000040201013
:1016F000102844424140404040404000000000006B
:10170000000000000000000000000000000018249D
:10171000241800000000000000000000100C0494D9
:101720006C04850684E48C9484140C000022732AD3
:10173000262AB140300F40807F000000104C8414F6
:101740000CE4050604E40C9444140C0008884524B9
:101750001A070000003F4548504078001060028C96
:101760000040407F444400FC04FC000004047E016F
:10177000104C807F041880631C6380002020202090
:10178000A0702F202020E020202020000080804614
:101790004528281018262140800000000000000085
:1017A00000000000000000000000000000005838A9
:1017B00000000000000000000000000020102CE7E6
:1017C000242400F01010FF1010F000000101017F30
:1017D000211100070202FF020207000004A4A4A4D2
:1017E000BFA4A40448C8487F48C8080040CF544458
:1017F00024342F2080432C102C4380000000E09CD8
:10180000848484F482828382808000000020100817
:101810000640807F00000204083000000010101015
:1018200010101116109050301000000000402010D1
:101830001028444241404040404040000000000029
:10184000000000000000000000000000000018245C
:10185000241800000000000000000000000000004C
:1018600000000000002F0000000007000700001427
:101870007F147F1400242A7F2A1200626408132335
:1018800000364955225000000503000000001C22CC
:101890004100000041221C000014083E081400080A
:1018A000083E0808000000A06000000808080808BA
:1018B000000060600000002010080402003E514952
:1018C000453E0000427F40000042615149460021F0
:1018D00041454B31001814127F100027454545390A
:1018E000003C4A4949300001710905030036494965
:1018F000493600064949291E00003636000000001E
:101900005636000000081422410000141414141468
:101910000000412214080002015109060032495911
:10192000513E007C1211127C007F49494936003E2D
:1019300041414122007F4141221C007F49494941E8
:10194000007F09090901003E4149497A007F0808E2
:10195000087F0000417F4100002040413F01007F9F
:1019600008142241007F40404040007F020C027F6B
:10197000007F0408107F003E4141413E007F09097D
:101980000906003E4151215E007F091929460046A3
:10199000494949310001017F0101003F4040403F7A
:1019A000001F2040201F003F4038403F00631408C4
:1019B000146300070870080700615149454300009F
:1019C0007F41410000552A552A55000041417F00C2
:1019D00000040201020400404040404000000102B7
:1019E0000400002054545478007F484444380038A0
:1019F0004444442000384444487F00385454541828
:101A000000087E0901020018A4A4A47C007F080439
:101A100004780000447D4000004080847D00007F09
:101A2000102844000000417F4000007C0418047826
:101A3000007C0804047800384444443800FC242422
:101A400024180018242418FC007C0804040800480A
:101A50005454542000043F444020003C4040207C2B
:101A6000001C2040201C003C4030403C004428101A
:101A70002844001CA0A0A07C004464544C441414CE
:101A80001414141400000000000000000000000006
:101A900000000000000000F800000000000000331B
:101AA0003000000000100C06100C060000000000C2
:101AB0000000000040C07840C0784000043F0404AB
:101AC0003F040400007088FC08300000001820FF6C
:101AD000211E0000F008F000E018000000211C03A7
:101AE0001E211E0000F00888700000001E21232423
:101AF0001927211010160E00000000000000000041
:101B000000000000000000E01804020000000007D0
:101B10001820400000020418E000000000402018D7
:101B200007000000404080F0804040000202010FAA
:101B300001020200000000F0000000000101011F8E
:101B400001010100000000000000000080B07000F2
:101B50000000000000000000000000000001010182
:101B60000101010100000000000000000030300011
:101B700000000000000000008060180400601806EB
:101B80000100000000E010080810E000000F102025
:101B900020100F00001010F8000000000020203F6F
:101BA00020200000007008080888700000302824F9
:101BB000222130000030088888483000001820209A
:101BC00020110E000000C02010F8000000070424BF
:101BD000243F240000F80888880808000019212004
:101BE00020110E0000E0108888180000000F11205E
:101BF00020110E0000380808C83808000000003F17
:101C0000000000000070880808887000001C222175
:101C100021221C0000E010080810E0000000312222
:101C200022110F00000000C0C000000000000030C2
:101C30003000000000000080000000000000806014
:101C40000000000000008040201008000001020495
:101C5000081020004040404040404000040404047C
:101C60000404040000081020408000000020100838
:101C700004020100007048080808F000000000306D
:101C800036010000C030C828E810E00007182724FB
:101C900023140B000000C038E0000000203C2302A9
:101CA0000227382008F8888888700000203F20200C
:101CB00020110E00C030080808083800071820203E
:101CC0002010080008F808080810E000203F202035
:101CD00020100F0008F88888E8081000203F202016
:101CE0002320180008F88888E8081000203F20000A
:101CF00003000000C0300808083800000718202042
:101D0000221E020008F808000008F808203F210100
:101D100001213F20000808F8080800000020203FAB
:101D20002020000000000808F8080800C08080801B
:101D30007F00000008F888C028180800203F200114
:101D40002638200008F8080000000000203F20206E
:101D50002020300008F8F800F8F80800203F003F85
:101D6000003F200008F830C00008F808203F20009D
:101D700007183F00E01008080810E0000F102020AE
:101D800020100F0008F808080808F000203F210183
:101D900001010000E01008080810E0000F182424DA
:101DA00038504F0008F8888888887000203F20004D
:101DB000030C302000708808080838000038202103
:101DC00021221C00180808F8080818000000203F0D
:101DD0002000000008F808000008F808001F202074
:101DE00020201F000878880000C838080000073845
:101DF0000E010000F80800F80008F800033C070096
:101E0000073C0300081868808068180820302C03FD
:101E1000032C30200838C800C83808000000203FD4
:101E20002000000010080808C838080020382621C3
:101E300020201800000000FE020202000000007FC7
:101E400040404000000C30C00000000000000001D5
:101E50000638C00000020202FE00000000404040C0
:101E60007F000000000004020202040000000000E5
:101E70000000000000000000000000008080808062
:101E8000808080800002020400000000000000004A
:101E900000000000000080808080000000192422E3
:101EA00022223F2008F8008080000000003F11201F
:101EB00020110E000000008080800000000E112024
:101EC00020201100000000808088F800000E112002
:101ED00020103F200000808080800000001F222210
:101EE00022221300008080F0888888180020203F7C
:101EF000202000000000808080808000006B94948F
:101F00009493600008F8008080800000203F21004A
:101F100000203F2000809898000000000020203F13
:101F200020200000000000809898000000C0808001
:101F3000807F000008F8000080808000203F24029D
:101F40002D302000000808F8000000000020203F8D
:101F5000202000008080808080808000203F200042
:101F60003F20003F8080008080800000203F2100D3
:101F700000203F200000808080800000001F202083
:101F800020201F00808000808000000080FFA120B2
:101F900020110E000000008080808000000E1120C3
:101FA00020A0FF80808080008080800020203F2152
:101FB0002000010000008080808080000033242405
:101FC00024241900008080E0808000000000001FB1
:101FD000202000008080000000808000001F202062
:101FE00020103F20808080000080808000010E3023
:101FF0000806010080800080008080800F300C0384
:102000000C300F0000808000808080000020312E86
:102010000E312000808080000080808080818E7062
:102020001806010000808080808080000021302C14
:102030002221300000000000807C0202000000002D
:10204000003F404000000000FF00000000000000D2
:10205000FF0000000002027C800000000040403FC2
:10206000000000000006010102020404000000005C
:10207000000000000003050911FF118905C300E0FD
:1020800000F000F8000000000000004428FF11AA42
:1020900044000000000000000000000000000000FC
:1020A0000000000000000000000000000000000030
:1020B0000000000000000000000000000000000020
:1020C000000000000000000000000000000083018C
:1020D0003844829292740183000000000000007C6A
:1020E00044FF017D7D7D017D7D7D7D017D7D7D7D4B
:1020F0007D01FF000000000000010001000100015F
:1021000000010001000000000000000000010100CB
:1021100000000000000000000000000000000000BF
:1021200000000000000000000000000000000000AF
:10213000000000000000000000000000000000009F
:10214000000000000000000000000000000001018D
:10215000000000000000010100000000000000007D
:102160000001010101010101010101010101010160
:10217000010101000000000000000000000000005C
:10218000000000000000000000000000000000004F
:102190003F3F0303F31311111111111101F11161EB
:1021A00081010101816111F1010101014141F1014F
:1021B00001010101C1211111111121C1010101010F
:1021C0004141F1010101010101010101011111115F
:1021D0001111D33303033F3F000000000000000053
:1021E00000000000000000000000000000000000EF
:1021F00000000000000000000000000000000000DF
:1022000000000000000000000000000000000000CE
:10221000E0E000007F01010101010100007F0000FA
:10222000010618060100007F0000000040407F40CA
:10223000400000001F2040404040201F00000000E0
:1022400040407F404000000000600000000040303F
:102250000C0300000000E0E00000000000000000AF
:10226000000000000000000000000000000000006E
:10227000000000000000000000000000000000005E
:10228000000000000000000000000000000000004E
:102290000707060606060404048444444484040430
:1022A000844444448404040484C40404040484442E
:1022B000444484040404040484444444840404041E
:1022C000040484444444840404844444448404044E
:1022D00004040606060607070000000000000000D0
:1022E00000000000000000000000000000000000EE
:1022F00000000000000000000000000000000000DE
:1023000000000000000000000000000000000000CD
:10231000000000000000000000101814121100005E
:102320000F1010100F000000101F10000000081008
:1023300012120D00001800000D1212120D000018EC
:1023400000001018141211000010181412110000CF
:10235000000000000000000000000000000000007D
:10236000000000000000000000000000000000006D
:10237000000000000000000000000000000000005D
:10238000000000000000000000000000000000004D
:10239000000000000000000000000000000000003D
:1023A000000000000000000000000000000000002D
:1023B000808080808080808000000000000000001D
:1023C000000000000000000000000000000000000D
:1023D00000000000000000000000000000000000FD
:1023E00000000000000000000000000000000000ED
:1023F00000000000007F030C300C037F0000385405
:10240000545800007C04047800003C40407C0000EC
:1024100000000000000000000000000000000000BC
:1024200000000000000000000000000000000000AC
:10243000FFAAAAAA280800FF000000000000000070
:10244000000000000000000000000000000000008C
:10245000000000000000000000000000007F030CEE
:10246000300C037F0000264949493200007F0204F6
:1024700008107F00CAA1B5E7D7D3C9E8BCC6BEBA69
:10248000C8FC00004030088480FEA090908808308E
:1024900000000002017F54545454547F0000000097
:1024A00000F0909090FE909090F010000000000FCF
:1024B0000404047F4444444F5060000080808484BE
:1024C0008484E4948C8484800000000000004040F8
:1024D0003F000000000000004042CC8040BC8484EB
:1024E00084BCC02000000000BF98484126183C234F
:1024F000404000000084CC00008080FE808080404E
:10250000000000007F100800007F000000000000B5
:102510004040C848384A4C2858484800000080804D
:102520004F251D053D45474040780000000C486898
:10253000F86668F86878080000000885855F443D03
:1025400025255F45050400006825000800000020DF
:1025500014000000E80900087C2500081400002091
:1025600004040000F8090008000000000102030450
:0C25700001020304060708090204060823
:0400000508000131BD
:00000001FF
