:020000040800F2
:1000000060140020450100084D0100084F01000860
:1000100051010008530100085501000800000000CC
:100020000000000000000000000000005701000870
:1000300059010008000000005B0100085D01000894
:100040005F0100085F0100085F0100085F01000810
:100050005F0100085F0100085F0100085F01000800
:100060005F0100085F010008CD0D00085F01000876
:100070005F0100085F0100085F0100085F010008E0
:100080005F0100085F0100085F0100085F010008D0
:100090005F0100085F0100085F0100085F010008C0
:1000A0005F010008B51400085F0100085F01000847
:1000B000E514000821150008511500085F0100082B
:1000C0005F0100085F0100085F0100085F01000890
:1000D0005F010008B11B0008DD1B0008E11B0008E0
:1000E0005F0100085F0100085F0100085F01000870
:1000F0005F0100085F0100085F0100085F01000860
:100100005F0100085F010008551500085F01000845
:10011000F11A00085F0100086D150008CD180008ED
:100120005F0100085F0100085F0100085F0100082F
:10013000DFF80CD000F0D8FB004800471128000879
:10014000601400200648804706480047FEE7FEE7A7
:10015000FEE7FEE7FEE7FEE7FEE7FEE7FEE7FEE777
:100160005514000831010008F0B480EA0102D40FF0
:100170004200B2EB410F02D20246084611464A0045
:1001800042D0C30DDDB2C1F3C752AD1A202D35DA0E
:10019000C1F3160141F4000204B15242C5F1200638
:1001A00002FA06F12A411044B3EBD05F23D0C4B168
:1001B000012DA0EBC35009DCF0BC4FF0004202EA75
:1001C000C352DBB200F5000000F0D3BA400000F1EA
:1001D000807000EBC350A0F1807040EAD1704900FC
:1001E00009E0490841EAC071A0EBC35000F50000E6
:1001F000400800EBC350F0BC00F0B2BA61420122EB
:1002000002EB4101001BF6E7F0BC704781F00041B2
:10021000AAE780F00040A7E780EA010210B502F0EB
:100220000043400022D04A001FD0010E01EB1261B2
:10023000C0F35600C2F3560240F4000042F400023C
:10024000A0FB022000047F39140400D0401C50EAB7
:10025000124001D44000491EC2B20C0604EBD0107B
:10026000401C4008802A02D003E0002010BD20F08E
:100270000100002900DA0020184310BD30B480EAE4
:10028000010202F0004530F0004221F0004013D09E
:1002900090B1C30DD40DC2F31601C0F31600E41AD9
:1002A00041F4000140F400027D34914201D3641C0A
:1002B00000E04900002C02DA30BC002070474FF407
:1002C00000000023914201D3891A034340084FEAFA
:1002D0004101F7D151B1914202D14FF0004105E007
:1002E00002D24FF0010101E06FF0010103EBC450B5
:1002F000284430BC00F034BA2DE9FE4F804681EA34
:100300000300C00F0C46009021F0004123F000458F
:10031000B8EB0200A94105D24046214690461C4652
:100320000B46024623F00040104347D0270DC7F389
:100330000A00C3F30A510290401A019040286BDA78
:10034000C3F3130040F4801B0098924620B10023B1
:10035000D2EB030A63EB0B0B01985946C0F1400244
:10036000504600F0CCF906460D4650465946019AD3
:1003700000F0E4F910EB08006141002487EA115213
:1003800084EAE7731A4340D0009A62B3019A012AC3
:100390004FEA075215DC001B61EB02014FF00042EF
:1003A00002EA0752CDE90042001C41F580113246B5
:1003B0002B4600F01BFA03B0BDE8F08F4046214603
:1003C000F9E7001B61EB0201001C41F580130018E6
:1003D0005B412018A2F5001747EB030140EAD570F6
:1003E000B6196D4111E06D084FEA360645EAC07551
:1003F0004FEA0752001B61EB0201001C41F580111E
:1004000049084FEA30000019514132462B4603B0EB
:10041000BDE8F04F00F0DBB9009801224000002356
:10042000D0EB020263EBE073009821464FEAE074E0
:10043000B8EB000061EB0401E9E783F000435BE700
:1004400081F0004158E72DE9FE4F81EA030404F0F2
:10045000004421F0004100944FF0000B23F00043D2
:1004600050EA01045ED052EA03045BD0C3F30A549D
:10047000C1F30A552C44A4F2F3340194A0FB0254B6
:10048000C1F3130141F48011C3F3130343F4801348
:1004900001FB024400FB034E840A970A44EA81549C
:1004A00047EA8357A4FB076802958D0A05FB078579
:1004B0004FEA932C04FB0C542705029D4FEA065883
:1004C00047EA1637B5EB08056EEB070C870E920E60
:1004D00047EA811742EA8312A7FB0201B6EB0B0140
:1004E00064EB00042B0D43EA0C335E1844EB1C5004
:1004F000DA465146E7FB0201C5F313044FEA0B331A
:1005000043EA14534FEA0432019C43EA0603A4F180
:100510000C040294009CCDE900B400F067F903B02C
:10052000BDE8F08F00200146F9E72DE9F04D81EAA2
:10053000030404F0004B21F0004514464FF0000A7C
:1005400023F0004150EA050220D054EA01021DD0F8
:10055000C5F30A570246C5F31303C1F31300C1F3F1
:100560000A5640F4801543F48013A7EB0608101BCD
:10057000D64608F2FD3873EB050002D308F10108F6
:1005800001E092185B41B8F1000F03DA0020014648
:10059000BDE8F08D00204FF48011064684460EE041
:1005A000171B73EB050705D3121B63EB050306430B
:1005B0004CEA010C49084FEA300092185B4150EABE
:1005C0000107EDD152EA030012D082EA040083EA67
:1005D0000501084305D0101BAB4106D201220023C0
:1005E00006E000224FF0004302E06FF001025310DA
:1005F0001AEB06004CEB085110EB0A0041EB0B0123
:10060000BDE8F04D00F0E3B896230022114600F05B
:10061000B0B800F0004230F000400AD0C10D01F542
:100620006071C0F3160042EA0151C208400711434D
:10063000704700200146704701F0004330B421F0BC
:10064000004150EA010206D00A0DA2F56072C1F322
:100650001301002A02DC30BC00207047440F44EA3A
:10066000C104C100E01830BC00EBC25000F078B803
:1006700030B50B46014600202022012409E021FA72
:1006800002F59D4205D303FA02F5491B04FA02F56F
:100690002844151EA2F10102F1DC30BD2DE9F05F06
:1006A0000546002092469B468846064681464024E1
:1006B0001BE0284641464746224600F02FF85346A5
:1006C0005A46C01A914110D311461846224600F0EE
:1006D00016F82D1A67EB01084F462246012000212B
:1006E00000F00DF817EB00094E41201EA4F10104A3
:1006F000DFDC484631462A464346BDE8F09F202AC3
:1007000004DB203A00FA02F1002070479140C2F168
:10071000200320FA03F3194390407047202A04DB9A
:10072000203A21FA02F00021704721FA02F3D0406A
:10073000C2F120029140084319467047202A06DB87
:10074000CB17203A41FA02F043EAE07306E041FA9F
:1007500002F3D040C2F1200291400843194670478D
:100760000029A8BF7047401C490008BF20F00100C5
:10077000704710B4B0FA80FC00FA0CF050EA0104A3
:1007800004BF10BC704749B1CCF1200421FA04F435
:1007900011FA0CF118BF012121430843A3EB0C010E
:1007A000CB1D4FEA00614FEA102042BF002010BC71
:1007B000704700EBC35010440029A4BF10BC704721
:1007C000401C490008BF20F0010010BC704710B564
:1007D000141E73F1000408DA401C41F10001921864
:1007E0005B411A4301D120F0010010BD2DE9F04D0D
:1007F00092469B4611B1B1FA81F202E0B0FA80F262
:1008000020329046FFF77BFF04460F4640EA0A007D
:1008100041EA0B0153465A46084313D0114653EAA6
:10082000010019D0C8F140025046FFF777FF054696
:100830000E46504659464246FFF761FF084305D031
:10084000012004E020463946BDE8F08D0020054334
:1008500046EAE0762C4337430A986305E40AA0EBA6
:1008600008000022FD0A44EA47540A3002D500205D
:100870000146E9E7010510196941DDE9084500195C
:100880006941BDE8F04DA2E7C1F30A52C1F313017B
:1008900040F2FF3341F480119A4202DA002001460F
:1008A000704740F233439A42A2F2334202DC524292
:1008B000FFF734BFFFF723BF30B5041E71F100040A
:1008C00004DB4FF00044404264EB0101141E73F15D
:1008D000000405DB1C464FF00043524263EB040367
:1008E000994208BF904230BD064C074D06E0E068D3
:1008F00040F0010394E8070098471034AC42F6D367
:10090000FFF71AFC5C2800087C28000821B18268E7
:1009100042F00102826003E0826822F001028260FC
:10092000704721B1826842F48072826003E082687D
:1009300022F4807282607047014600208A6802F0CB
:1009400004020AB1012000E00020704701460020A7
:100950008A6802F008020AB1012000E00020704716
:1009600030B502460020002350680F4C20400D791E
:100970000C6844EA05242043506090680B4C2040EA
:10098000D1E902542C434D7944EA45042043906058
:10099000D06A20F470000C7C641EE4B2234340EA69
:1009A0000350D06230BD0000FFFEF0FFFDF7F1FF05
:1009B000F0B504460D4600200021092D11DDE06848
:1009C000A5F10A0606EB4607072606FA07F1884353
:1009D000A5F10A0606EB460603FA06F10843E060B5
:1009E0000CE0206905EB4507072606FA07F1884366
:1009F00005EB450603FA06F108432061072A0FDAE2
:100A0000606B561E06EB86071F2606FA07F1884321
:100A1000561E06EB860605FA06F10843606322E0DF
:100A20000D2A0FDA206BD61F06EB86071F2606FA63
:100A300007F18843D61F06EB860605FA06F1084340
:100A4000206310E0E06AA2F10D0606EB86071F2680
:100A500006FA07F18843A2F10D0606EB860605FAB1
:100A600006F10843E062F0BD816841F00801816051
:100A7000704721B1826842F4A002826003E082687C
:100A800022F4A00282607047816841F00401816015
:100A90007047000008B50121102000F0C9FB3F207D
:100AA000ADF8000000208DF803006946014800F011
:100AB0008EF908BD0010014010B5FFF7EBFF00F004
:100AC00001F810BD00B591B00121084600F080FB8F
:100AD0000121480200F0ACFB444800F0B3F8444860
:100AE000069044480790002008900A2009900020B2
:100AF0000A9080200B9040000C9080000D902020E8
:100B00000E9000020F900020109006A9374800F0C8
:100B10003FF90121354800F089F8002001900120BB
:100B20008DF808008DF809004FF460200390002034
:100B300004900A208DF8140001A92D484C38FFF7C5
:100B40000FFF4FF4404000F037FB052301220A213C
:100B500027484C38FFF72CFF052302220B2124489D
:100B60004C38FFF725FF052303220C2120484C3881
:100B7000FFF71EFF052304220D211D484C38FFF707
:100B800017FF05231A460E2119484C38FFF710FFAE
:100B9000052306220F2116484C38FFF709FF0121D3
:100BA00013484C38FFF7BDFE012111484C38FFF7C0
:100BB000ADFE0F484C38FFF757FF00BF0C484C38CC
:100BC000FFF7C4FE0028F9D109484C38FFF75CFF55
:100BD00000BF07484C38FFF7AFFE0028F9D10121CC
:100BE00003484C38FFF745FF11B000BD0800024034
:100BF0004C2401402010002008B50121082000F0FD
:100C000017FB0120ADF8000010208DF80300032031
:100C10008DF802006946044800F0D9F80121024825
:100C200000F060F908BD0000000C014021B102682D
:100C300042F00102026004E002684FF6FE731A40BF
:100C40000260704701684FF6FE721140016000219A
:100C5000016041608160C1604B49884208D14A49C6
:100C60000839496841F00F01474A083A51608AE063
:100C700045491431884208D143490839496841F04F
:100C8000F001414A083A51607DE03F4928318842ED
:100C900008D13D490839496841F470613A4A083A37
:100CA000516070E038493C31884208D136490839F2
:100CB000496841F47041344A083A516063E032496E
:100CC0005031884208D130490839496841F47021CF
:100CD0002D4A083A516056E02B496431884208D1C8
:100CE00029490839496841F47001274A083A516096
:100CF00049E025497831884208D1234908394968B3
:100D000041F07061204A083A51603CE01F49884236
:100D100006D1011F096841F00F01021F116032E086
:100D20001A491431884208D11849091F096841F04D
:100D3000F001164A121F116025E01449283188423B
:100D400008D11249091F096841F470610F4A121F46
:100D5000116018E00D493C31884208D10B49091F48
:100D6000096841F47041094A121F11600BE00749FC
:100D70005031884207D10549091F096841F47021A3
:100D8000024A121F11607047080002400804024026
:100D900010B50022026847F6F0739A430C6A8B681C
:100DA00023430C6923434C6923438C692343CC6957
:100DB00023434C6A23438C6A23431A430260CB6863
:100DC00043600B6883604B68C36010BD70472DE9BA
:100DD000F0410246002500260020002300240027C1
:100DE00091F803C00CF00F0591F803C00CF0100C43
:100DF000BCF1000F03D091F802C04CEA050591F850
:100E000000C0BCF1000F31D0146800202BE04FF07F
:100E1000010C0CFA00F3B1F800C00CEA03069E4284
:100E200020D183004FF00F0C0CFA03F7BC4305FAF6
:100E300003FC4CEA040491F803C0BCF1280F06D16E
:100E40004FF0010C0CFA00FCC2F814C00AE091F853
:100E500003C0BCF1480F05D14FF0010C0CFA00FCA7
:100E6000C2F810C0401C0828D1D31460B1F800C0EB
:100E7000BCF1FF0F34DD546800202EE000F1080CB7
:100E80004FF0010808FA0CF3B1F800C00CEA0306B1
:100E90009E4221D183004FF00F0C0CFA03F7BC43A4
:100EA00005FA03FC4CEA040491F803C0BCF1280FD6
:100EB00005D100F1080C08FA0CF8C2F8148091F87A
:100EC00003C0BCF1480F07D100F1080C4FF0010836
:100ED00008FA0CF8C2F81080401C0828CED35460E1
:100EE000BDE8F081416170470161704708B501219B
:100EF000402000F09DF90C20ADF8000010208DF886
:100F0000030003208DF8020069460648FFF75FFFE3
:100F100004210448FFF7E8FF08210248FFF7E4FF37
:100F200008BD00000018014010B54FF4A06000F0AB
:100F300039F810BD70B5002100230F22C47804B326
:100F4000154C246804F4E064C4F5E064210AC1F19E
:100F50000403CA40447804FA03F18478144021431E
:100F600009010E4C0678A155047804F01F050124F0
:100F7000AC4005786D11AD0005F1E025C5F80041E4
:100F800009E0047804F01F050124AC40044D067804
:100F9000761145F8264070BD0CED00E000E400E05D
:100FA00080E100E002490143024A116070470000FD
:100FB0000000FA050CED00E070B50646002415E0CF
:100FC00004F1B001C8B200F0ABF8012000F0A8F8BD
:100FD000102000F0A5F8002504E0304600F0C6F827
:100FE000681CC5B2802DF8DB601CC4B2082CE7DB9E
:100FF00070BD000008B50121042000F019F9F020AF
:10100000ADF8000010208DF8030003208DF80200D9
:1010100069463848FFF7DBFEF0213648FFF764FFEA
:1010200040213448FFF75EFF642001F0B9FB402106
:101030003048FFF759FFAE2000F072F8AE2000F004
:101040006FF8002000F06CF8102000F069F84020E4
:1010500000F066F8812000F063F8CF2000F060F81F
:10106000A12000F05DF8C82000F05AF8A62000F09A
:1010700057F8A82000F054F83F2000F051F8D32092
:1010800000F04EF8002000F04BF8D52000F048F8B2
:10109000802000F045F8D92000F042F8F12000F05F
:1010A0003FF8DA2000F03CF8122000F039F8DB209D
:1010B00000F036F8402000F033F8202000F030F83F
:1010C000022000F02DF88D2000F02AF8142000F006
:1010D00027F8A42000F024F8A62000F021F8AF2083
:1010E00000F01EF80020FFF767FF0021084600F01F
:1010F00003F808BD0008014070B504460D4605F12F
:10110000B001C8B200F00CF8102141EA141000F050
:1011100007F804F00F0141F0010000F001F870BD84
:1011200070B5054680211048FFF7DCFE002417E06B
:1011300005FA04F000F0800020B120210A48FFF7F2
:10114000D3FE03E020210848FFF7CCFE102106481B
:10115000FFF7C8FE10210448FFF7C6FE601CC4B2AA
:10116000082CE5DB70BD00000008014070B50546A5
:1011700080211048FFF7B8FE002417E005FA04F0BC
:1011800000F0800020B120210A48FFF7ADFE03E007
:1011900020210848FFF7A6FE10210648FFF7A2FE0F
:1011A00010210448FFF7A0FE601CC4B2082CE5DB48
:1011B00070BD00000008014001460020034A50684D
:1011C00020F4404008435060704700000010024087
:1011D00029B1064A52690243044B5A6104E0034AAA
:1011E00052698243014B5A6170470000001002406F
:1011F00029B1064AD2690243044BDA6104E0034A8A
:10120000D2698243014BDA6170470000001002404E
:1012100029B1064A12690243044B1A6104E0034AE9
:1012200012698243014B1A617047000000100240AE
:1012300029B1064A92690243044B9A6104E0034AC9
:1012400092698243014B9A6170470000001002408E
:1012500029B1064AD2680243044BDA6004E0034A2B
:10126000D2688243014BDA607047000000100240F0
:1012700030B500210022002400232D4D6D6805F0BB
:101280000C0121B1042905D0082923D105E0294DFD
:10129000056022E0274D05601FE0254D6D6805F4CF
:1012A0007012234D6D6805F48034022505EB9242DF
:1012B0001CB9214D554305600BE01D4D6D6805F4CB
:1012C00000351DB11C4D5543056002E0194D5543D5
:1012D000056002E0174D056000BF00BF144D6D684A
:1012E00005F0F0010909154D6B5C0568DD404560AE
:1012F0000F4D6D6805F4E061090A104D6B5C45689F
:10130000DD4085600A4D6D6805F46051C90A0B4DDA
:101310006B5C4568DD40C560054D6D6805F4404176
:10132000890B074D6B5CC568B5FBF3F5056130BDF6
:101330000010024000127A0000093D001400002055
:101340002400002010B500F001F810BD0CB50020FD
:10135000019000903348006840F4803031490860C3
:1013600000BF3048006800F4003000900198401C35
:101370000190009818B90198B0F5A06FF1D12948F3
:10138000006800F4003010B10120009001E000205E
:1013900000900098012843D12348006840F01000D5
:1013A000214908600846006820F0030008600846EC
:1013B000006840F0020008601A4840681949486017
:1013C0000846406848600846406840F480604860CD
:1013D0000846406820F47C1048600846406840F4A5
:1013E000E81048600846006840F08070086000BF60
:1013F0000C48006800F000700028F9D009484068E7
:1014000020F00300074948600846406840F00200A9
:10141000486000BF0348406800F00C000828F9D17C
:101420000CBD00000010024000200240042808D13A
:101430004FF0E021096941F004014FF0E022116111
:1014400007E04FF0E021096921F004014FF0E022AC
:101450001161704710B51348006840F00100114950
:10146000086008464068104908400E494860084630
:1014700000680E4908400B4908600846006820F4DF
:10148000802008600846406820F4FE0048604FF461
:101490001F008860FFF756FF4FF0006004490860A6
:1014A00010BD0000001002400000FFF8FFFFF6FE34
:1014B00008ED00E010B50121084800F0ACFA38B1A1
:1014C0000748006808B9012000E0002004490860CE
:1014D0000121024800F090FA10BD0000002C0140EC
:1014E0008C01234210B50121880700F094FA50B115
:1014F00007A000F0C9FC0948006808B9012000E015
:101500000020064908600121880700F075FA10BD27
:10151000202032323232200D0A2020008C0123425A
:1015200010B50121084800F076FA38B10748006884
:1015300008B9012000E000200449086001210248A8
:1015400000F05AFA10BD0000000400408801234258
:101550007047000010B50121034800F05CFA01213A
:10156000014800F049FA10BD000C00402DE9F04F91
:101570008BB04FF0000900200A9009900890079066
:1015800001900121A74800F046FA00287DD0A64925
:101590000888FFF739F8A5490090FEF73DFE83461D
:1015A0004FF08B41FEF76AFE8246FFF732F807469E
:1015B0004FF066329E4BFEF746FF0546FFF73CF8BC
:1015C0009C49086098494888FFF71EF897490090A1
:1015D000FEF722FE83464FF08B41FEF74FFE824618
:1015E000FFF717F807464FF06632914BFEF72BFFD7
:1015F0000546FFF721F88F4948608B498888FFF737
:1016000003F88A490090FEF707FE83464FF08B41AE
:10161000FEF734FE8246FEF7FCFF07464FF06632C7
:10162000834BFEF710FF0546FFF706F881498860F7
:101630007D49C888FEF7E8FF7C490090FEF7ECFD85
:1016400083464FF08B41FEF719FE8246FEF7E1FF1D
:1016500007464FF06632764BFEF7F5FE0546FEF77D
:10166000EBFF7449C86070490889FEF7CDFF6F49E8
:101670000090FEF7D1FD83464FF08B41FEF7FEFD53
:101680008246FEF7C6FF074600E0B2E04FF0663242
:10169000674BFEF7D8FE0546FEF7CEFF65490861A9
:1016A000084600686449654A126841F822006148AA
:1016B00040686349614A126841F822005D488068C9
:1016C00060495E4A126841F822005A48C0685E4983
:1016D0005A4A126841F82200564800695B49574A45
:1016E000126841F8220055480068401C53490860C0
:1016F00008460068C8287CDB5548006808B9012006
:1017000000E0002052490860002407E04A4850F8F1
:1017100024104846FEF728FD8146641CC82CF5DBE2
:101720004C494846FEF7AAFD0690002407E04448CD
:1017300050F824100A98FEF717FD0A90641CC82C74
:10174000F5DB44490A98FEF799FD0590002407E06F
:101750003C4850F824100998FEF706FD0990641CD7
:10176000C82CF5DB3B490998FEF788FD049000245E
:1017700007E0354850F824100898FEF7F5FC08906B
:10178000641CC82CF5DB33490898FEF777FD0390FD
:10179000002407E02D4850F824100798FEF7E4FCD9
:1017A0000790641CC82CF5DB2A490798FEF766FDF4
:1017B00002900020214908600698FEF72AFF05469E
:1017C0002A460B4624A000F05FFB0598FEF721FF98
:1017D00005462A460B4628A000F056FB0498FEF763
:1017E00018FF05462A460B4627A000F04DFB03983C
:1017F00000E010E0FEF70DFF05462A460B4626A046
:1018000000F042FB0298FEF704FF05462A460B460D
:1018100026A000F039FB0121024800F0EDF80BB0E2
:10182000BDE8F08F001000402010002000401C4652
:1018300066660A4034100020800000202C00002042
:10184000A0030020C0060020E0090020000D0020B9
:101850008C012342000048430D0A20202020202034
:101860002020202020202020434830203D202535E6
:101870002E306620200D0A00434831203D202535BA
:101880002E30662020200000434832203D202535A0
:101890002E30662020200000434833203D2025358F
:1018A0002E30662020200D0A00000000202020207D
:1018B00020202020202020202020434834203D20AC
:1018C00025352E30662020200D0A000010B501219C
:1018D000084800F0A0F838B10748006808B90120AE
:1018E00000E00020044908600121024800F084F86B
:1018F00010BD0000001400408C0123421FB50121DF
:101900000820FFF775FC41F61F40ADF8040041F2D6
:101910008730ADF808000020ADF80600ADF80A00E9
:1019200001A9124800F092F80121104800F064F873
:10193000012211460D4800F07FF800210B4800F00D
:101940004FF80121094800F05AF832208DF80000C4
:1019500001208DF8010000208DF8020001208DF893
:1019600003006846FFF7E6FA1FBD0000000C0040C8
:101970001FB501211020FFF73BFC40F2CF20ADF84E
:101980000400C720ADF808000020ADF80600ADF84F
:101990000A0001A9114800F059F801210F4800F090
:1019A0002BF8012211460D4800F046F800210B48A3
:1019B00000F016F80121094800F021F836208DF8D2
:1019C000000002208DF8010003208DF802000120A4
:1019D0008DF803006846FFF7ADFA1FBD0010004008
:1019E00021B1028842F08002028004E002884FF6B2
:1019F0007F731A4002807047CA430282704721B148
:101A0000028842F00102028004E002884FF6FE7371
:101A10001A400280704730B502460020002300249F
:101A2000158A05EA0103958905EA010413B10CB191
:101A3000012000E0002030BD1AB183890B4383816F
:101A400002E083898B438381704700000022028873
:101A50001D4B98420ED01D4B98420BD0B0F1804FD9
:101A600008D01B4B984205D01A4B984202D01A4B13
:101A7000984204D14FF68F731A404B881A43174B84
:101A8000984207D0164B984204D04FF6FF431A40B5
:101A9000CB881A4302808B8883850B8803850A4B89
:101AA00098420BD0094B984208D00E4B984205D073
:101AB0000D4B984202D00D4B984201D10B7A038610
:101AC0000123838270470000002C01400034014054
:101AD0000004004000080040000C004000100040DE
:101AE0000014004000400140004401400048014013
:101AF00010B540F22551024800F0AFF810BD0000CB
:101B0000004C004000B587B001210520FFF790FB95
:101B100001218803FFF78CFB234800F0B9F84FF44C
:101B20000070ADF8180018208DF81B0003208DF808
:101B30001A0006A91D48FFF74AF94FF48060ADF876
:101B4000180004208DF81B0006A91848FFF73FF97C
:101B50004FF4E13002900020ADF80C00ADF80E001B
:101B6000ADF81000ADF814000C20ADF8120002A979
:101B70000D4800F013F925208DF8040000208DF8A1
:101B8000050003208DF8060001208DF8070001A84C
:101B9000FFF7D0F90121044800F06EF84021024817
:101BA00000F052F807B000BD0038014000080140C5
:101BB00010B540F22551074800F0C5F820B105489E
:101BC00000F058F90449087040F22551014800F02E
:101BD00044F810BD00380140480000207047000064
:101BE00010B540F22551124800F0ADF8F8B140F2BE
:101BF00025510F4800F031F80E48006808B901205F
:101C000000E000200B4908600B48D0F88C0108B9AF
:101C1000012000E0002009490860054800F02AF989
:101C20000749088008460188064800F028F910BDD9
:101C30000048004080812142000023428C01234261
:101C40004C0000200038014001F40072B2F5007F22
:101C500000D100BFCA430280704710B500220023A4
:101C600040F66A14A14200D100BF0A120124944038
:101C7000A3B2DC43048010BD21B1828942F400523A
:101C8000828104E082894DF6FF731A408281704799
:101C900010B504462048844209D101218803FFF78A
:101CA000D7FA00214FF48040FFF7D2FA32E01B4808
:101CB000844209D101214804FFF7AAFA00214FF418
:101CC0000030FFF7A5FA25E01548844209D101212B
:101CD0008804FFF79DFA00214FF48020FFF798FA5F
:101CE00018E01048844209D10121C804FFF790FA96
:101CF00000214FF40020FFF78BFA0BE00A488442E2
:101D000008D101210805FFF783FA00214FF4801064
:101D1000FFF77EFA10BD000000380140004400408B
:101D200000480040004C00400050004002460020A7
:101D3000B1F5007F00D100BF13880B400BB101202B
:101D400000E00020704770B5024600240023002503
:101D5000002040F66A16B14200D100BFC1F342151F
:101D600001F01F03012606FA03F3012D02D1968923
:101D7000334006E0022D02D1168A334001E0968AF4
:101D800033400C12012606FA04F41688344013B1CD
:101D90000CB1012000E0002070BD00002DE9F047EB
:101DA00086B005460E460024A24600BFA146002785
:101DB000B08900B100BF2F462C8A4CF6FF7004405A
:101DC000F08804432C82AC894EF6F3100440B088AE
:101DD00031890843718908430443AC81AC8A4FF6CA
:101DE000FF400440B0890443AC8201A8FFF740FAE9
:101DF0001F48874202D1DDF810A001E0DDF80CA0F9
:101E0000A88900F4004040B10AEBCA0000EB0A10B8
:101E100031684900B0FBF1F807E00AEBCA0000EBBB
:101E20000A1031688900B0FBF1F86420B8FBF0F0CB
:101E300004012009642101FB1089A88900F40040F5
:101E400040B1322000EBC900B0FBF1F000F0070018
:101E5000044308E0322000EB09106421B0FBF1F0EC
:101E600000F00F0004432C8106B0BDE8F0870000AD
:101E70000038014001468888C0F308007047C1F36C
:101E800008028280704700000FB4054B10B503A90B
:101E9000044A029800F0CAF810BC5DF814FB000078
:101EA000ED2700085400002002E008C8121F08C1F6
:101EB000002AFAD170477047002001E001C1121FCB
:101EC000002AFBD1704700002DE9FF5FDDE9022009
:101ED000010DDDF838B0024318D044F61050A1F2DD
:101EE000FF3141430D140F98012820D0A5EB0B00C2
:101EF000401C5FEA000A4FF00004474EDFF81C91D7
:101F0000A046504616D5CAF1000728E00F980124D4
:101F100043A2012808D0002100980F9BC0E90021AE
:101F2000C0E90243BDE8FF9F6FEA0B01F4E7CBF184
:101F30000000DEE7074612E0F80707D022463346E6
:101F400040464946FEF77FFA804689462246334698
:101F500010461946FEF777FA04460E467F10002F0A
:101F6000EAD1DDE90201BAF1000F42464B4602DA3E
:101F7000FEF769FA01E0FEF7D8FA04460E460022A1
:101F8000284BFEF799FC03D84FF0FF30014607E0DD
:101F90000022254B20463146FEF7AEF9FEF774FCD1
:101FA000102409E0002C0ADB0A220023FEF776FB4E
:101FB000019B30321A55641E50EA0102F2D1641CB2
:101FC000019AC4F1110314440F9A012A03D001228B
:101FD00008430DD10AE0084304D000204FF0110B54
:101FE0000F9080E7A3EB0B056D1E0DE05B4504DD54
:101FF0004FF0000205F1010504E003DA4FF00002A2
:10200000A5F10105002AECD000980F99C0E9023132
:10201000C0E9004586E70000000024400000F03FD2
:10202000300000000000F0430000E03F2DE9FF4FCA
:1020300095B09B468946064600250FE2252877D1B4
:1020400000242746F84A0121059400E0044316F8CD
:10205000013F203B01FA03F01042F7D130782A28E3
:1020600011D06FF02F033078A0F13002092A16D872
:10207000059A44F0020402EB820203EB4202104490
:10208000761C0590EFE759F8042B0592002A03DA35
:10209000504244F40054059044F00204761C307819
:1020A0002E2816D116F8010F44F004042A280DD06A
:1020B0006FF02F023078A0F13003092B09D807EB1D
:1020C000870302EB4303C718761CF3E759F8047B38
:1020D000761C30786C280FD006DC4C2817D0682886
:1020E0000DD06A2814D104E0742810D07A280FD1BA
:1020F0000DE044F400140AE044F4801401E044F4D8
:1021000040147278824202D104F58014761C761C49
:10211000307866280BD013DC582877D009DC0028EB
:1021200075D04528F6D04628F4D047281AD19DE12D
:1021300018E0632835D0642879D0652812D195E15C
:10214000702873D008DC6728F1D069286FD06E281A
:102150000DD06F2806D1B5E073282CD0752875D026
:10216000782874D05A46179990476D1C75E1C4F3CE
:102170000250022809D003280DD0D9F800100428F5
:102180000DD00D6009F1040967E1D9F80010EA17D4
:10219000C1E90052F6E7D9F800100D80F2E70D70A2
:1021A000F0E719F8041B8DF8001000208DF80100ED
:1021B000EA46012003E059F804AB4FF0FF30610715
:1021C0004FF0000102D40DE008F101018846B94248
:1021D0000FDA8045F8DB1AF808100029F4D108E07E
:1021E00008F1010188468142FADB1AF8081000293B
:1021F000F6D105985B46A0EB080721463846179AAA
:1022000000F094FA284400EB080507E04DE029E1CE
:102210000DE01AF8010B5A4617999047B8F10108DA
:10222000F7D25B4621463846179A13E142E00A226C
:102230000092C4F302524FF0000A022A08D059F863
:1022400004CB032A4FEAEC710AD00DE029E02AE022
:1022500009F1070121F00702F2E802C1914609E005
:102260000FFA8CFC4FEAEC71042A03D14FFA8CFC74
:102270004FEAEC71002907DA0A460021DCF1000C74
:1022800061EB02012D2202E0220504D52B228DF8FC
:102290000420012203E0E20701D02022F7E7904664
:1022A00059E00A2102E010220DE010214FF0000A4F
:1022B00000910BE010224FF0000A44F004040827BC
:1022C000009203E008224FF0000A0092C4F3025289
:1022D000022A05D059F804CB0021032A08D009E0CE
:1022E00009F1070121F00702F2E802C1914605E079
:1022F0001FFA8CFC042A01D10CF0FF0C4FF00008EF
:10230000220728D5702806D0009B83F0100353EADB
:102310000A0305D00EE040228DF80420012208E0D7
:102320005CEA010206D030228DF804208DF8050009
:1023300002229046009B83F0080353EA0A030AD165
:102340005CEA010201D1620705D530228DF8042034
:102350004FF001087F1E582804D034A003900EA827
:1023600002900DE036A0F9E753466046009AFEF76A
:1023700095F984460398825C0298401E0290027090
:102380005CEA0100F0D1029806A9081A00F1200ABF
:10239000600702D524F4803400E00127574502DDB0
:1023A000A7EB0A0000E0002000EB0A01009005986E
:1023B0004144401A0590E00306D45B462146179A33
:1023C000059800F0B3F90544002706E001A85A4635
:1023D000C05D179990476D1C7F1C4745F6DBE003F5
:1023E0000CD55B462146179A059800F09FF90544E5
:1023F00004E030205A46179990476D1C0099481EFA
:1024000000900029F5DC08E0029802995A4600780D
:10241000491C0291179990476D1CBAF10001AAF16D
:10242000010AF1DC65E10000092801003031323396
:102430003435363738396162636465660000000000
:1024400030313233343536373839414243444546EA
:102450000000000000F058F90544761C3078002890
:102460007FF4ECAD19B02846BDE8F08F620700D4C8
:10247000062709F1070222F0070CFCE80223E146D7
:1024800003F000485FEA080C02D00FF2702C0DE058
:102490005FEA045C02D50FF2682C07E05FEAC47CB7
:1024A00002D00FF2602C01E0AFF2700C4FF0FF3859
:1024B00023F00043CDF850C065280CD006DC452839
:1024C00009D046281DD047283DD13DE0662818D0C8
:1024D00067287ED138E00021112F01DB112000E0B8
:1024E000781CCDE9000106A90EA8FFF7EDFCDDE997
:1024F0000F010E9A03910021009207F1010A049145
:102500004DE04FF000400097CDE9011006A90EA85C
:10251000FFF7DAFCDDE90F0203920E9B119900220E
:10252000DDF80CA00093049211B9791C00EB010AAC
:10253000B7EB0A0004D4C0F1FF3007F1010A0490A0
:10254000AAEB0700019044E0012F00DA01270021E7
:10255000112F01DD112000E03846CDE9000106A968
:102560000EA8FFF7B1FCDDE90F010E9A03910021DF
:1025700004910092BA4621070CD40399514500DA20
:102580008A46BAF1010F05DD009AAAF10101515CFA
:10259000302908D0B84202DA10F1040F06DA01211E
:1025A000CDE9011015E0AAF10101E9E7002805DCF9
:1025B000049901440491AAEB000102E0411C514539
:1025C00000DD8A460499401A401C01904FF00040FB
:1025D0000290200704D40198504501DBCDF8048017
:1025E00000208DF84F0002980DF14F07B0F1004F19
:1025F00025D02B200E9002984FF0020800280CDA0C
:10260000404202902D200E9007E00A210298FEF72A
:102610002FF83031029007F8011DB8F10001A8F140
:102620000108F2DC02980028EFD1791E0E9808709C
:10263000307800F0200040F0450007F8020D12A8A5
:10264000C01B00F107081498007800B1012000EBCE
:102650000A01019801EBE07105984144401A401EBF
:102660000590E00306D45B462146179A059800F0D2
:102670005DF805441498007818B15A4617999047A8
:102680006D1CE00324D55B462146179A059800F09F
:102690004DF805441CE00498002807DBDDE9030140
:1026A000884203DD0098405C179901E017993020BB
:1026B0005A469047049805F10105401C0490019882
:1026C000401E019004D12E205A46179990476D1C48
:1026D000BAF10001AAF1010ADDDC05E017F8010BEF
:1026E0005A46179990476D1CB8F10001A8F10108EE
:1026F000F4DC5B462146179A0598ABE62D000000F6
:102700002B000000200000002DE9F04104460025C8
:102710001E461746880404D405E039462020B047F9
:102720006D1C641EF9D52846BDE8F0812DE9F04105
:10273000044600251E469046C80301D5302700E018
:102740002027880404D505E041463846B0476D1C73
:10275000641EF9D52846BDE8F081000010B56FF081
:102760000400FEF763FE0A4800680A49B0FBF1F076
:10277000094908700846007800EB4001C1EBC01021
:102780004FF6FF7101EAC0000449088010BD000047
:102790000000002000127A004E00002050000020AF
:1027A0000146114A12884A434FF0E0235A61002241
:1027B0009A611A46126942F001021A6100BF4FF095
:1027C000E022106900F001021AB100F48032002A00
:1027D000F5D04FF0E022126922F001024FF0E02321
:1027E0001A6100229A6170475000002070B50446BB
:1027F0000D46E1B20548FFF742FB00BF4021034808
:10280000FFF794FA0028F9D0204670BD0038014047
:10281000FFF7A4FFFEF788FBFEF768FBFEF7ECF975
:10282000FEF7E8FBFFF76EF9FFF768F8FFF7A0F88F
:10283000FEF742F94FF47A70FFF7B2FF0120054925
:1028400008600549C1F8880103E04FF47A70FFF78A
:10285000A7FFFAE78C012342000023427C280008EE
:102860000000002058000000A81E0008D42800081E
:102870005800002008140000B81E000800A24A04F6
:102880000000000000000000010203040607080920
:102890000000000001020304010203040607080906
:1028A0000204060800000000000000000100000013
:1028B000000000000000803F000000000000000059
:1028C0000000000000000000000000000000000008
:0428D0000000000004
:0400000508000131BD
:00000001FF
